8=FIX.4.2|9=159|35=A|34=1|49=4S5001N|50=ShengShaoDong|52=20160822-09:13:28.347|56=CME|57=G|142=CN|369=0|95=3|96=4S5|98=0|108=30|141=N|1603=Hundsun UFOs|1604=V7.0|1605=Hundsun|10=118|8=FIX.4.2|9=88|35=5|34=2|49=4S5001N|50=ShengShaoDong|52=20160822-09:13:30.035|56=CME|57=G|142=CN|369=0|10=095|8=FIX.4.2|9=159|35=A|34=3|49=4S5001N|50=ShengShaoDong|52=20160822-09:19:22.880|56=CME|57=G|142=CN|369=1|95=3|96=4S5|98=0|108=30|141=N|1603=Hundsun UFOs|1604=V7.0|1605=Hundsun|10=123|8=FIX.4.2|9=88|35=5|34=4|49=4S5001N|50=ShengShaoDong|52=20160822-09:19:24.578|56=CME|57=G|142=CN|369=1|10=119|8=FIX.4.2|9=161|35=A|34=80|49=4S5001N|50=ShengShaoDong|52=20160822-09:21:31.445|56=CME|57=G|142=CN|369=81|95=3|96=4S5|98=0|108=30|141=N|1603=Hundsun UFOs|1604=V7.0|1605=Hundsun|10=215|8=FIX.4.2|9=105|35=0|34=81|49=4S5001N|50=ShengShaoDong|52=20160822-09:21:33.196|56=CME|57=G|142=CN|369=82|112=IDis3bjvrm|10=138|8=FIX.4.2|9=161|35=A|34=82|49=4S5001N|50=ShengShaoDong|52=20160822-09:26:30.340|56=CME|57=G|142=CN|369=83|95=3|96=4S5|98=0|108=30|141=N|1603=Hundsun UFOs|1604=V7.0|1605=Hundsun|10=217|8=FIX.4.2|9=100|35=2|34=83|49=4S5001N|50=ShengShaoDong|52=20160822-09:26:32.060|56=CME|57=G|142=CN|369=83|7=84|16=0|10=171|8=FIX.4.2|9=147|35=AF|34=84|49=4S5001N|50=GZENG|52=20160822-09:27:18.729|56=CME|57=G|142=CN|369=83|60=20160822-09:26:40:194|584=20160822-09:26:40:194|585=7|1028=Y|10=092|8=FIX.4.2|9=105|35=0|34=85|49=4S5001N|50=ShengShaoDong|52=20160822-09:27:18.737|56=CME|57=G|142=CN|369=87|112=IDis3bjvrp|10=160|8=FIX.4.2|9=90|35=0|34=86|49=4S5001N|50=ShengShaoDong|52=20160822-09:27:48.740|56=CME|57=G|142=CN|369=89|10=225|8=FIX.4.2|9=90|35=0|34=87|49=4S5001N|50=ShengShaoDong|52=20160822-09:28:18.742|56=CME|57=G|142=CN|369=90|10=218|8=FIX.4.2|9=54|35=5|34=88|49=4S5001N|52=20160822-09:28:30.743|56=CME|10=144|